:100000000C942A000C943F000C943F000C943F0089
:100010000C943F000C943F000C943F000C943F0064
:100020000C943F000C943F000C943F000C943F0054
:100030000C943F000C943F000C943F000C943F0044
:100040000C943F000C943F000C943F000C943F0034
:100050000C943F0011241FBECFE5D8E0DEBFCDBF1A
:1000600011E0A0E6B0E0E2EBF0E602C005900D92F0
:10007000A638B107D9F70E94B62B0C9457300C94D0
:100080000000EF92FF920F931F937B018C0120E001
:1000900030E040E05FE40E94410388238CF0C80117
:1000A000B70120E030E040E05FE40E94B9010E9427
:1000B000A1039B01AC01205030404040504806C095
:1000C000C801B7010E94A1039B01AC01B901CA019B
:1000D0001F910F91FF90EF900895A0E0B0E0E3E74B
:1000E000F0E00C942030DC012B01FA019C9192305D
:1000F00008F439C1EB018881823008F433C19430AF
:1001000069F4843009F02FC111969C91119789816F
:10011000981709F428C1AEE7B0E025C1843009F48E
:1001200021C18230A9F4923009F01DC19A01AD01BC
:1001300088E0EA010990AE01E90109929E0181502F
:10014000C1F7E201898111969C918923818308C1BD
:10015000923009F407C112962D903C901397EB0151
:100160008A819B811496AD90BD90CD90DC901797BD
:10017000EC80FD800E811F819101281B390BB90194
:1001800037FF04C066277727621B730B6032710547
:100190000CF061C0121613066CF537014801062EEB
:1001A00004C096948794779467940A94D2F721E0D8
:1001B00030E040E050E004C0220F331F441F551FC1
:1001C0006A95D2F721503040404050402E213F21C7
:1001D00040235123211531054105510521F021E02E
:1001E00030E040E050E079018A01E628F72808294C
:1001F00019293CC0232BD1F1260E371E35014601AB
:10020000062E04C096948794779467940A94D2F744
:1002100021E030E040E050E004C0220F331F441FD3
:10022000551F6A95D2F721503040404050402A2156
:100230003B214C215D21211531054105510521F05E
:1002400021E030E040E050E059016A01A628B728DB
:10025000C828D9280BC0821593052CF01C01AA24AC
:10026000BB24650103C0EE24FF24870111969C91F5
:10027000D20111968C91981709F445C0992339F051
:10028000A80197012A193B094C095D0906C0A6017E
:1002900095012E193F09400B510B57FD08C01182E3
:1002A0003382228224833583468357831DC081E0B5
:1002B00081833382228288279927DC01821B930B5A
:1002C000A40BB50B84839583A683B7830DC0220F3F
:1002D000331F441F551F24833583468357838281F0
:1002E000938101979383828324813581468157814D
:1002F000DA01C9010197A109B1098F5F9F4FAF4F83
:10030000BF4328F30BC0918333822282EA0CFB1C8B
:100310000C1D1D1DE482F5820683178383E0808314
:10032000248135814681578157FF1AC0C901AA2708
:1003300097FDA095BA2F81709070A070B0705695FF
:10034000479537952795822B932BA42BB52B848328
:100350009583A683B7838281938101969383828359
:10036000DF0101C0D201CD01CDB7DEB7E2E10C94CF
:100370003C30A0E2B0E0EFEBF1E00C942C3069836C
:100380007A838B839C832D833E834F835887E9E058
:10039000EE2EF12CEC0EFD1ECE010196B7010E944F
:1003A00092058E010F5E1F4FCE010596B8010E9487
:1003B00092058A8991E089278A8BC701B801AE012D
:1003C000475E5F4F0E946D000E94BD04A096E6E06C
:1003D0000C944830A0E2B0E0E0EFF1E00C942C3057
:1003E00069837A838B839C832D833E834F835887D5
:1003F000F9E0EF2EF12CEC0EFD1ECE010196B701B7
:100400000E9492058E010F5E1F4FCE010596B80126
:100410000E949205C701B801AE01475E5F4F0E947E
:100420006D000E94BD04A096E6E00C944830A0E266
:10043000B0E0EDE1F2E00C94203069837A838B83A5
:100440009C832D833E834F835887CE010196BE0146
:10045000675F7F4F0E949205CE010596BE016F5ED9
:100460007F4F0E9492059985923088F08989823069
:10047000C8F0943019F4823051F404C0843029F467
:10048000923081F48EE790E0C6C0923049F420E0CB
:100490009A858A89981321E02A87CE010996BBC0E4
:1004A000823049F420E09A858A89981321E02A8BCA
:1004B000CE014196B0C02D843E844F8458886D880B
:1004C0007E888F88988CEE24FF248701AA24BB2481
:1004D000650140E050E060E070E0E0E0F0E0C10184
:1004E00081709070892BE9F0E60CF71C081D191D2E
:1004F0009A01AB012A0D3B1D4C1D5D1D80E090E073
:10050000A0E0B0E0E614F7040805190520F481E046
:1005100090E0A0E0B0E0BA01A901480F591F6A1F9E
:100520007B1FAA0CBB1CCC1CDD1C97FE08C081E005
:1005300090E0A0E0B0E0A82AB92ACA2ADB2A3196C6
:10054000E032F10549F0660C771C881C991C569422
:10055000479437942794C3CFFA85EA892B893C893D
:100560008B859C85280F391F2E5F3F4F17C0CA010E
:1005700081709070892B61F016950795F794E79438
:1005800080E090E0A0E0B0E8E82AF92A0A2B1B2BD3
:1005900076956795579547952F5F3F4F77FDE7CF46
:1005A0000CC0440F551F661F771F17FD4160EE0CEE
:1005B000FF1C001F111F21503040403090E05907B0
:1005C00090E0690790E4790760F32B8F3C8FDB01A3
:1005D000CA018F779070A070B07080349105A1052A
:1005E000B10561F447FD0AC0E114F10401051105EC
:1005F00029F0405C5F4F6F4F7F4F40781A8EFE1797
:1006000011F081E08A8F4D8F5E8F6F8F78A383E02A
:10061000898FCE0149960E94BD04A096E2E10C9418
:100620003C30A8E1B0E0E7E1F3E00C942C306983C2
:100630007A838B839C832D833E834F83588789E005
:10064000E82EF12CEC0EFD1ECE010196B7010E94A2
:1006500092058E010F5E1F4FCE010596B8010E94D4
:1006600092058985823040F08989823028F0C7015F
:10067000B8010E940A0601C08FEF6896E6E00C946C
:100680004830A8E1B0E0E7E4F3E00C942C30698353
:100690007A838B839C832D833E834F83588789E0A5
:1006A000E82EF12CEC0EFD1ECE010196B7010E9442
:1006B00092058E010F5E1F4FCE010596B8010E9474
:1006C00092058985823040F08989823028F0C701FF
:1006D000B8010E940A0601C08FEF6896E6E00C940C
:1006E0004830A8E1B0E0E7E7F3E00C942C306983F0
:1006F0007A838B839C832D833E834F83588789E045
:10070000E82EF12CEC0EFD1ECE010196B7010E94E1
:1007100092058E010F5E1F4FCE010596B8010E9413
:1007200092058985823040F08989823028F0C7019E
:10073000B8010E940A0601C081E06896E6E00C94C8
:100740004830ACE0B0E0E7EAF3E00C943030698385
:100750007A838B839C83CE010196BE016B5F7F4FB2
:100760000E9492058D81823061F1823050F1843097
:1007700021F48E81882351F12EC02F81388537FDD9
:1007800020C06E812F3131051CF06623F9F023C0A3
:100790008EE190E0821B930B29853A854B855C8521
:1007A00004C056954795379527958A95D2F76623C5
:1007B000B1F050954095309521953F4F4F4F5F4F89
:1007C0000EC020E030E040E050E009C02FEF3FEFE6
:1007D0004FEF5FE704C020E030E040E050E8B901AF
:1007E000CA012C96E2E00C944C30A8E0B0E0EBEFAC
:1007F000F3E00C9428307B018C01611571058105B3
:10080000910519F482E0898360C083E089838EE1D9
:10081000C82ED12CDC82CB82ED82FE820F8318871A
:10082000C801B7010E946E04FC013197F7FF3BC07D
:10083000222733272E1B3F0B57016801022E04C0CD
:10084000D694C794B794A7940A94D2F740E050E0A6
:1008500060E070E081E090E0A0E0B0E004C0880FCC
:10086000991FAA1FBB1F2A95D2F70197A109B109A9
:100870008E219F21A023B1230097A105B10521F06E
:1008800041E050E060E070E04A295B296C297D2955
:100890004D835E836F8378878EE190E08E1B9F0B84
:1008A0009C838B8312C0309781F00E2E04C0EE0C17
:1008B000FF1C001F111F0A94D2F7ED82FE820F83E6
:1008C0001887CE1ADF0ADC82CB821A82CE0101960B
:1008D0000E94BD042896EAE00C944430EF92FF9207
:1008E0000F931F937B018C0180E0E81680E0F806EF
:1008F00081E0080780E0180788F48FEFE816F1041C
:100900000105110531F028F088E090E0A0E0B0E0AA
:1009100017C080E090E0A0E0B0E012C080E0E816F0
:1009200080E0F80680E0080781E0180728F088E1F9
:1009300090E0A0E0B0E004C080E190E0A0E0B0E092
:1009400020E230E040E050E0281B390B4A0B5B0B03
:1009500004C016950795F794E7948A95D2F7F701A6
:10096000EA57FF4F8081281B310941095109C9010C
:100970001F910F91FF90EF900895DF92EF92FF92F9
:100980000F931F93FC01E480F58006811781D180CD
:100990008081823048F480E090E0A0E1B0E0E82A75
:1009A000F92A0A2B1B2BA5C0843009F49FC0823082
:1009B00021F4EE24FF24870105C0E114F1040105B0
:1009C000110519F4E0E0F0E096C0628173819FEFB9
:1009D000623879070CF05BC022E83FEF261B370B2B
:1009E0002A3131052CF020E030E040E050E02AC010
:1009F000B801A701022E04C07695679557954795D3
:100A00000A94D2F781E090E0A0E0B0E004C0880F43
:100A1000991FAA1FBB1F2A95D2F70197A109B109F7
:100A20008E219F21A023B1230097A105B10521F0BC
:100A300081E090E0A0E0B0E09A01AB01282B392BD7
:100A40004A2B5B2BDA01C9018F779070A070B070D0
:100A500080349105A105B10539F427FF09C0205C58
:100A60003F4F4F4F5F4F04C0215C3F4F4F4F5F4F91
:100A7000E0E0F0E02030A0E03A07A0E04A07A0E480
:100A80005A0710F0E1E0F0E079018A0127C06038F0
:100A9000710564F5FB01E158FF4FD801C7018F775D
:100AA0009070A070B07080349105A105B10539F443
:100AB000E7FE0DC080E490E0A0E0B0E004C08FE36A
:100AC00090E0A0E0B0E0E80EF91E0A1F1B1F17FF20
:100AD00005C016950795F794E794319687E016952B
:100AE0000795F794E7948A95D1F705C0EE24FF2483
:100AF0008701EFEFF0E06E2F679566276795902FDF
:100B00009F77D794DD24D7948E2F8695492F462B37
:100B1000582F5D29B701CA011F910F91FF90EF90E7
:100B2000DF900895FC01DB01408151812281622F19
:100B30006F7770E0221F2227221F9381892F880F51
:100B4000822B282F30E0991F9927991F11969C938B
:100B5000119721153105A9F541155105610571055B
:100B600011F482E037C082E89FEF13969C938E9336
:100B700012979A01AB0167E0220F331F441F551FE4
:100B80006A95D1F783E08C930DC0220F331F441F69
:100B9000551F12968D919C911397019713969C93D4
:100BA0008E931297203080E0380780E0480780E479
:100BB000580758F314962D933D934D935C931797D4
:100BC00008952F3F310579F44115510561057105EF
:100BD00019F484E08C93089564FF03C081E08C9342
:100BE00012C01C9210C02F57304013963C932E9386
:100BF000129783E08C9387E0440F551F661F771F81
:100C00008A95D1F7706414964D935D936D937C93A0
:100C1000179708951F93DC01FB019C91923008F413
:100C200047C08081823008F443C0943051F411965B
:100C30001C91843099F58181682F70E0611B7109E6
:100C40003FC0843021F0923031F48230B9F181819B
:100C5000882389F12DC011961C9111978230F1F0F3
:100C600081811817D9F412962D913C9113978281A6
:100C700093818217930794F028173907BCF01496D4
:100C80008D919D910D90BC91A02D2481358146813F
:100C90005781281739074A075B0718F4112341F0D9
:100CA0000AC082179307A407B50740F4112319F06F
:100CB00061E070E005C06FEF7FEF02C060E070E0C0
:100CC000CB011F910895DF93CF9300D000D0CDB713
:100CD000DEB78A838A81282F30E03C832B838B8187
:100CE0009C818F30910509F457C12B813C812031C3
:100CF00031050CF05AC08B819C818730910509F435
:100D0000FBC02B813C812830310554F58B819C81BF
:100D10008330910509F4C8C02B813C812430310512
:100D200094F48B819C818130910509F4A9C02B81B9
:100D30003C81223031050CF0ADC08B819C81009745
:100D400009F494C0D2C12B813C812530310509F4CE
:100D5000BFC08B819C81863091050CF0C3C0AEC0B2
:100D60002B813C812B30310509F4EEC08B819C81B5
:100D70008C3091056CF42B813C812930310509F4CC
:100D8000CFC08B819C818A3091050CF0D3C0BEC04E
:100D90002B813C812D30310509F4EAC08B819C8187
:100DA0008E3091050CF0EEC0D9C02B813C812731EB
:100DB000310509F441C18B819C81883191052CF565
:100DC0002B813C812331310509F40EC18B819C813B
:100DD000843191056CF42B813C812131310509F47A
:100DE000EFC08B819C81823191050CF0F3C0DEC095
:100DF0002B813C812531310509F40AC18B819C810D
:100E0000863191050CF00EC1F9C02B813C812B314C
:100E1000310509F439C18B819C818C3191056CF4C9
:100E20002B813C812931310509F41AC18B819C81C8
:100E30008A3191050CF01EC109C12B813C812D31F5
:100E4000310509F435C18B819C818D3191050CF4FC
:100E500025C12B813C812E31310509F433C18B81B1
:100E60009C818F31910509F437C13FC18AE10E940D
:100E70008F1C813011F4198238C181E0898335C11A
:100E80008BE10E948F1C813011F419822EC181E008
:100E900089832BC18CE10E948F1C813011F419824F
:100EA00024C181E0898321C18DE10E948F1C8130A2
:100EB00011F419821AC181E0898317C18AE10E9465
:100EC0008F1C813011F4198210C181E089830DC11A
:100ED0008CE00E948F1C813011F4198206C181E0E0
:100EE000898303C18DE00E948F1C813011F4198227
:100EF000FCC081E08983F9C08EE00E948F1C8130A4
:100F000011F41982F2C081E08983EFC08FE00E9462
:100F10008F1C813011F41982E8C081E08983E5C01B
:100F20008AE10E948F1C813011F41982DEC081E0B9
:100F30008983DBC08AE10E948F1C813011F4198201
:100F4000D4C081E08983D1C081E10E948F1C8130AF
:100F500011F41982CAC081E08983C7C082E10E946E
:100F60008F1C813011F41982C0C081E08983BDC01B
:100F70008AE10E948F1C813011F41982B6C081E091
:100F80008983B3C08AE10E948F1C813011F41982D9
:100F9000ACC081E08983A9C08AE10E948F1C8130A6
:100FA00011F41982A2C081E089839FC08AE10E9466
:100FB0008F1C813011F4198298C081E0898395C01B
:100FC0008AE10E948F1C813011F419828EC081E069
:100FD00089838BC08AE10E948F1C813011F41982B1
:100FE00084C081E0898381C08AE10E948F1C8130A6
:100FF00011F419827AC081E0898377C08AE10E9466
:101000008F1C813011F4198270C081E089836DC01A
:1010100081E10E948F1C813011F4198266C081E049
:10102000898363C082E10E948F1C813011F4198290
:101030005CC081E0898359C08AE10E948F1C8130A5
:1010400011F4198252C081E089834FC08AE10E9465
:101050008F1C813011F4198248C081E0898345C01A
:101060008AE10E948F1C813011F419823EC081E018
:1010700089833BC08AE10E948F1C813011F4198260
:1010800034C081E0898331C08AE10E948F1C8130A5
:1010900011F419822AC081E0898327C08AE10E9465
:1010A0008F1C813011F4198220C081E089831DC01A
:1010B0008AE10E948F1C813011F4198216C081E0F0
:1010C000898313C08AE10E948F1C813011F4198238
:1010D0000CC081E0898309C08AE10E948F1C8130A5
:1010E00011F4198202C081E0898389810F900F90E9
:1010F0000F900F90CF91DF910895DF93CF93CDB7ED
:10110000DEB7CF91DF910895DF93CF9300D000D069
:1011100000D0CDB7DEB789836A838A81882309F03E
:1011200078C186E161E00E944A1C8981282F30E065
:101130003E832D838D819E818430910509F4BBC04F
:101140002D813E8125303105ECF48D819E818130E9
:10115000910509F459C02D813E81223031052CF4CE
:101160008D819E81009799F1CBC22D813E812230E5
:10117000310509F466C08D819E818330910509F4A3
:101180007DC0BEC22D813E812730310509F4EAC001
:101190008D819E81883091056CF42D813E812530B2
:1011A000310509F4A5C08D819E818630910509F431
:1011B000BCC0A6C22D813E812830310509F4EFC0A4
:1011C0008D819E818930910509F406C199C281E023
:1011D00061E00E944A1C82E061E00E944A1C83E0B8
:1011E00061E00E944A1C84E061E00E944A1C85E0A4
:1011F00061E00E944A1C86E061E00E944A1C87E090
:1012000060E00E944A1C7CC281E060E00E944A1CAF
:1012100082E061E00E944A1C83E061E00E944A1C77
:1012200084E060E00E944A1C85E060E00E944A1C65
:1012300086E060E00E944A1C87E060E00E944A1C51
:101240005FC281E061E00E944A1C82E061E00E948E
:101250004A1C83E060E00E944A1C84E061E00E9436
:101260004A1C85E061E00E944A1C86E060E00E9422
:101270004A1C87E061E00E944A1C42C281E061E0B2
:101280000E944A1C82E061E00E944A1C83E061E007
:101290000E944A1C84E061E00E944A1C85E060E0F4
:1012A0000E944A1C86E060E00E944A1C87E061E0E0
:1012B0000E944A1C25C281E060E00E944A1C82E034
:1012C00061E00E944A1C83E061E00E944A1C84E0C5
:1012D00060E00E944A1C85E060E00E944A1C86E0B3
:1012E00061E00E944A1C87E061E00E944A1C08C23B
:1012F00081E061E00E944A1C82E060E00E944A1C9A
:1013000083E061E00E944A1C84E061E00E944A1C84
:1013100085E060E00E944A1C86E061E00E944A1C71
:1013200087E061E00E944A1CEBC181E061E00E941D
:101330004A1C82E060E00E944A1C83E061E00E9457
:101340004A1C84E061E00E944A1C85E061E00E9442
:101350004A1C86E061E00E944A1C87E061E00E942E
:101360004A1CCEC181E061E00E944A1C82E061E03B
:101370000E944A1C83E061E00E944A1C84E060E015
:101380000E944A1C85E060E00E944A1C86E060E002
:101390000E944A1C87E060E00E944A1CB1C181E0C3
:1013A00061E00E944A1C82E061E00E944A1C83E0E6
:1013B00061E00E944A1C84E061E00E944A1C85E0D2
:1013C00061E00E944A1C86E061E00E944A1C87E0BE
:1013D00061E00E944A1C94C181E061E00E944A1CC5
:1013E00082E061E00E944A1C83E061E00E944A1CA6
:1013F00084E061E00E944A1C85E060E00E944A1C93
:1014000086E061E00E944A1C87E061E00E944A1C7D
:1014100077C187E161E00E944A1C8981282F30E072
:101420003C832B838B819C818430910509F4BBC064
:101430002B813C8125303105ECF48B819C818130FE
:10144000910509F459C02B813C81223031052CF4DF
:101450008B819C81009799F153C12B813C81223073
:10146000310509F466C08B819C818330910509F4B4
:101470007DC046C12B813C812730310509F4EAC08B
:101480008B819C81883091056CF42B813C812530C7
:10149000310509F4A5C08B819C818630910509F442
:1014A000BCC02EC12B813C812830310509F4EFC02E
:1014B0008B819C818930910509F406C121C181E0AD
:1014C00061E00E944A1C82E061E00E944A1C83E0C5
:1014D00061E00E944A1C84E061E00E944A1C85E0B1
:1014E00061E00E944A1C86E061E00E944A1C87E09D
:1014F00060E00E944A1C04C181E060E00E944A1C36
:1015000082E061E00E944A1C83E061E00E944A1C84
:1015100084E060E00E944A1C85E060E00E944A1C72
:1015200086E060E00E944A1C87E060E00E944A1C5E
:10153000E7C081E061E00E944A1C82E061E00E9415
:101540004A1C83E060E00E944A1C84E061E00E9443
:101550004A1C85E061E00E944A1C86E060E00E942F
:101560004A1C87E061E00E944A1CCAC081E061E039
:101570000E944A1C82E061E00E944A1C83E061E014
:101580000E944A1C84E061E00E944A1C85E060E001
:101590000E944A1C86E060E00E944A1C87E061E0ED
:1015A0000E944A1CADC081E060E00E944A1C82E0BB
:1015B00061E00E944A1C83E061E00E944A1C84E0D2
:1015C00060E00E944A1C85E060E00E944A1C86E0C0
:1015D00061E00E944A1C87E061E00E944A1C90C0C2
:1015E00081E061E00E944A1C82E060E00E944A1CA7
:1015F00083E061E00E944A1C84E061E00E944A1C92
:1016000085E060E00E944A1C86E061E00E944A1C7E
:1016100087E061E00E944A1C73C081E061E00E94A3
:101620004A1C82E060E00E944A1C83E061E00E9464
:101630004A1C84E061E00E944A1C85E061E00E944F
:101640004A1C86E061E00E944A1C87E061E00E943B
:101650004A1C56C081E061E00E944A1C82E061E0C1
:101660000E944A1C83E061E00E944A1C84E060E022
:101670000E944A1C85E060E00E944A1C86E060E00F
:101680000E944A1C87E060E00E944A1C39C081E049
:1016900061E00E944A1C82E061E00E944A1C83E0F3
:1016A00061E00E944A1C84E061E00E944A1C85E0DF
:1016B00061E00E944A1C86E061E00E944A1C87E0CB
:1016C00061E00E944A1C1CC081E061E00E944A1C4B
:1016D00082E061E00E944A1C83E061E00E944A1CB3
:1016E00084E061E00E944A1C85E060E00E944A1CA0
:1016F00086E061E00E944A1C87E061E00E944A1C8B
:1017000026960FB6F894DEBF0FBECDBFCF91DF9106
:101710000895DF93CF930F92CDB7DEB78983898188
:10172000882329F486E160E00E944A1C04C087E116
:1017300060E00E944A1C0F90CF91DF910895DF93E3
:10174000CF930F92CDB7DEB789838981882329F49F
:1017500086E160E00E944A1C04C087E160E00E94CC
:101760004A1C0F90CF91DF910895DF93CF9300D063
:101770000F92CDB7DEB789838981282F30E03B8374
:101780002A838A819B818F30910509F40CC12A81BB
:101790003B81203131050CF05AC08A819B81873012
:1017A000910509F4D8C02A813B812830310554F5D0
:1017B0008A819B818330910509F4B9C02A813B81DC
:1017C0002430310594F48A819B818130910509F49C
:1017D000A4C02A813B81223031050CF0A3C08A814C
:1017E0009B81009709F494C032C12A813B81253046
:1017F000310509F4A6C08A819B81863091050CF0E1
:10180000A5C09AC02A813B812B30310509F4B7C0AD
:101810008A819B818C3091056CF42A813B8129302F
:10182000310509F4A2C08A819B818A3091050CF0B0
:10183000A1C096C02A813B812D30310509F4A9C091
:101840008A819B818E3091050CF0A8C09DC02A81B1
:101850003B812731310509F4CEC08A819B818831D3
:1018600091052CF52A813B812331310509F4AFC064
:101870008A819B81843191056CF42A813B812131DD
:10188000310509F49AC08A819B81823191050CF05F
:1018900099C08EC02A813B812531310509F4A1C050
:1018A0008A819B81863191050CF0A0C095C02A8168
:1018B0003B812B31310509F4B2C08A819B818C3187
:1018C00091056CF42A813B812931310509F49DC0D1
:1018D0008A819B818A3191050CF09CC091C02A813C
:1018E0003B812D31310509F4A4C08A819B818D3162
:1018F00091050CF499C02A813B812E31310509F400
:101900009DC08A819B818F31910509F49CC09FC045
:1019100080E161E00E944A1C9AC081E161E00E947E
:101920004A1C95C082E161E00E944A1C90C083E19C
:1019300061E00E944A1C8BC084E161E00E944A1C65
:1019400086C085E161E00E944A1C81C080E161E0BF
:101950000E944A1C7CC080E161E00E944A1C77C062
:1019600080E161E00E944A1C72C080E161E00E9457
:101970004A1C6DC080E161E00E944A1C68C081E1A0
:1019800061E00E944A1C63C082E161E00E944A1C3F
:101990005EC080E161E00E944A1C59C080E161E0C4
:1019A0000E944A1C54C080E161E00E944A1C4FC062
:1019B00080E161E00E944A1C4AC080E161E00E942F
:1019C0004A1C45C080E161E00E944A1C40C080E1A1
:1019D00061E00E944A1C3BC080E161E00E944A1C19
:1019E00036C081E161E00E944A1C31C082E161E0C1
:1019F0000E944A1C2CC080E161E00E944A1C27C062
:101A000080E161E00E944A1C22C080E161E00E9406
:101A10004A1C1DC080E161E00E944A1C18C080E1A0
:101A200061E00E944A1C13C080E161E00E944A1CF0
:101A30000EC080E161E00E944A1C09C080E161E0C3
:101A40000E944A1C04C080E161E00E944A1C0F9081
:101A50000F900F90CF91DF910895DF93CF9300D037
:101A60000F92CDB7DEB789838981282F30E03B8381
:101A70002A838A819B818F30910509F40CC12A81C8
:101A80003B81203131050CF05AC08A819B8187301F
:101A9000910509F4D8C02A813B812830310554F5DD
:101AA0008A819B818330910509F4B9C02A813B81E9
:101AB0002430310594F48A819B818130910509F4A9
:101AC000A4C02A813B81223031050CF0A3C08A8159
:101AD0009B81009709F494C032C12A813B81253053
:101AE000310509F4A6C08A819B81863091050CF0EE
:101AF000A5C09AC02A813B812B30310509F4B7C0BB
:101B00008A819B818C3091056CF42A813B8129303C
:101B1000310509F4A2C08A819B818A3091050CF0BD
:101B2000A1C096C02A813B812D30310509F4A9C09E
:101B30008A819B818E3091050CF0A8C09DC02A81BE
:101B40003B812731310509F4CEC08A819B818831E0
:101B500091052CF52A813B812331310509F4AFC071
:101B60008A819B81843191056CF42A813B812131EA
:101B7000310509F49AC08A819B81823191050CF06C
:101B800099C08EC02A813B812531310509F4A1C05D
:101B90008A819B81863191050CF0A0C095C02A8175
:101BA0003B812B31310509F4B2C08A819B818C3194
:101BB00091056CF42A813B812931310509F49DC0DE
:101BC0008A819B818A3191050CF09CC091C02A8149
:101BD0003B812D31310509F4A4C08A819B818D316F
:101BE00091050CF499C02A813B812E31310509F40D
:101BF0009DC08A819B818F31910509F49CC09FC053
:101C000080E160E00E944A1C9AC081E160E00E948D
:101C10004A1C95C082E160E00E944A1C90C083E1AA
:101C200060E00E944A1C8BC084E160E00E944A1C74
:101C300086C085E160E00E944A1C81C080E160E0CE
:101C40000E944A1C7CC080E160E00E944A1C77C070
:101C500080E160E00E944A1C72C080E160E00E9466
:101C60004A1C6DC080E160E00E944A1C68C081E1AE
:101C700060E00E944A1C63C082E160E00E944A1C4E
:101C80005EC080E160E00E944A1C59C080E160E0D3
:101C90000E944A1C54C080E160E00E944A1C4FC070
:101CA00080E160E00E944A1C4AC080E160E00E943E
:101CB0004A1C45C080E160E00E944A1C40C080E1AF
:101CC00060E00E944A1C3BC080E160E00E944A1C28
:101CD00036C081E160E00E944A1C31C082E160E0D0
:101CE0000E944A1C2CC080E160E00E944A1C27C070
:101CF00080E160E00E944A1C22C080E160E00E9416
:101D00004A1C1DC080E160E00E944A1C18C080E1AE
:101D100060E00E944A1C13C080E160E00E944A1CFF
:101D20000EC080E160E00E944A1C09C080E160E0D2
:101D30000E944A1C04C080E160E00E944A1C0F908F
:101D40000F900F90CF91DF910895DF93CF9300D044
:101D50000F92CDB7DEB789838981282F30E03B838E
:101D60002A838A819B818F30910509F4FDC02A81E5
:101D70003B81203131050CF05AC08A819B8187302C
:101D8000910509F4D1C02A813B812830310554F5F1
:101D90008A819B818330910509F4B6C02A813B81F9
:101DA0002430310594F48A819B818130910509F4B6
:101DB000A3C02A813B81223031050CF0A1C08A8169
:101DC0009B81009709F494C012C12A813B81253080
:101DD000310509F4A1C08A819B81863091050CF000
:101DE0009FC096C02A813B812B30310509F4ACC0DD
:101DF0008A819B818C3091056CF42A813B8129304A
:101E0000310509F499C08A819B818A3091050CF0D3
:101E100097C08EC02A813B812D30310509F49CC0CA
:101E20008A819B818E3091050CF09AC091C02A81E5
:101E30003B812731310509F4B7C08A819B81883104
:101E400091052CF52A813B812331310509F49CC091
:101E50008A819B81843191056CF42A813B812131F7
:101E6000310509F489C08A819B81823191050CF08A
:101E700087C07EC02A813B812531310509F48CC0A1
:101E80008A819B81863191050CF08AC081C02A81AC
:101E90003B812B31310509F497C08A819B818C31BC
:101EA00091056CF42A813B812931310509F484C004
:101EB0008A819B818A3191050CF082C079C02A8188
:101EC0003B812D31310509F487C08A819B818D3199
:101ED00091050CF47DC02A813B812E31310509F436
:101EE0007FC08A819B818F31910509F47DC07FC0BD
:101EF00080E10E94BE1C7BC081E10E94BE1C77C0B5
:101F000082E10E94BE1C73C083E10E94BE1C6FC0B0
:101F100084E10E94BE1C6BC085E10E94BE1C67C0AC
:101F200080E10E94BE1C63C080E10E94BE1C5FC0B5
:101F300080E10E94BE1C5BC080E10E94BE1C57C0B5
:101F400080E10E94BE1C53C081E10E94BE1C4FC0B4
:101F500082E10E94BE1C4BC080E10E94BE1C47C0B3
:101F600080E10E94BE1C43C080E10E94BE1C3FC0B5
:101F700080E10E94BE1C3BC080E10E94BE1C37C0B5
:101F800080E10E94BE1C33C080E10E94BE1C2FC0B5
:101F900080E10E94BE1C2BC081E10E94BE1C27C0B4
:101FA00082E10E94BE1C23C080E10E94BE1C1FC0B3
:101FB00080E10E94BE1C1BC080E10E94BE1C17C0B5
:101FC00080E10E94BE1C13C080E10E94BE1C0FC0B5
:101FD00080E10E94BE1C0BC080E10E94BE1C07C0B5
:101FE00080E10E94BE1C03C080E10E94BE1C0F90D5
:101FF0000F900F90CF91DF910895DF93CF93CDB7DE
:10200000DEB780E00E942D0D81E00E942D0D82E060
:102010000E942D0D83E00E942D0D84E00E942D0D65
:10202000CF91DF910895DF93CF93CDB7DEB7EBE388
:10203000F0E08DEC8083E5E3F0E089E28083CF91EE
:10204000DF910895DF93CF93CDB7DEB7EBE3F0E0F8
:1020500082E38083E5E3F0E086ED8083CF91DF913A
:102060000895DF93CF9300D0CDB7DEB78A838A81FE
:102070000E9419118983898161E00E944A1C0F9096
:102080000F90CF91DF910895DF93CF9300D0CDB71C
:10209000DEB78A838A810E9419118983898160E071
:1020A0000E944A1C0F900F90CF91DF910895DF930B
:1020B000CF93CDB7DEB783E060E00E944A1C86E094
:1020C00060E00E944A1C82E060E00E944A1C87E0B7
:1020D00060E00E944A1C83E160E00E944A1C80E0AC
:1020E00060E00E944A1C85E160E00E944A1C80E199
:1020F00060E00E944A1CCF91DF910895DF93CF9357
:10210000CDB7DEB783E061E00E944A1C86E061E063
:102110000E944A1C82E061E00E944A1C87E061E064
:102120000E944A1C83E161E00E944A1C80E061E059
:102130000E944A1C85E161E00E944A1C80E161E046
:102140000E944A1CCF91DF910895DF93CF9300D076
:10215000CDB7DEB78A838A810E9471118983898114
:1021600060E00E944A1C0F900F90CF91DF9108957C
:10217000DF93CF9300D0CDB7DEB78A838A810E94E8
:1021800071118983898161E00E944A1C0F900F9030
:10219000CF91DF910895DF93CF93CDB7DEB787E17D
:1021A00061E00E944A1C86E161E00E944A1C82E1D3
:1021B00061E00E944A1C81E061E00E944A1C81E1CA
:1021C00061E00E944A1C84E061E00E944A1C85E0B4
:1021D00061E00E944A1C84E161E00E944A1CCF91A8
:1021E000DF910895DF93CF93CDB7DEB787E160E04D
:1021F0000E944A1C86E160E00E944A1C82E160E085
:102200000E944A1C81E060E00E944A1C81E160E07B
:102210000E944A1C84E060E00E944A1C85E060E065
:102220000E944A1C84E160E00E944A1CCF91DF9129
:102230000895DF93CF9300D000D0CDB7DEB78A8367
:102240008A81282F30E03C832B838B819C818330D3
:10225000910591F12B813C81243031057CF48B81F7
:102260009C818130910511F12B813C812230310517
:1022700004F58B819C810097B1F02BC02B813C81B0
:1022800025303105F9F08B819C8185309105BCF0BA
:102290002B813C8126303105B9F08B819C818730C0
:1022A0009105A9F016C083E0898313C086E0898375
:1022B00010C082E089830DC087E089830AC083E172
:1022C000898307C0198205C085E1898302C080E146
:1022D000898389810F900F900F900F90CF91DF919C
:1022E0000895DF93CF9300D000D0CDB7DEB78A83B7
:1022F0008A81282F30E03C832B838B819C81833023
:10230000910591F12B813C81243031057CF48B8146
:102310009C818130910511F12B813C812230310566
:1023200004F58B819C810097B1F02CC02B813C81FE
:1023300025303105F9F08B819C8185309105BCF009
:102340002B813C8126303105C1F08B819C81873007
:102350009105B1F017C087E1898314C086E18983B4
:1023600011C082E189830EC081E089830BC081E1C5
:10237000898308C084E0898305C085E0898302C021
:1023800084E1898389810F900F900F900F90CF91F6
:10239000DF910895DF93CF93CDB7DEB765970FB682
:1023A000F894DEBF0FBECDBF9D8B8C8B81E08B8BF5
:1023B0001A8A198AA9C00E942210188A1F861EC074
:1023C00089899A899C01220F331F220F331F220F04
:1023D000331F8F859889820F931F9C018C899D895B
:1023E000FC01E20FF31F8081882319F08F850E9482
:1023F000A5108F8598890196988B8F878F859889EE
:1024000088309105ECF289890E9431108B89882FE0
:1024100090E0A0E0B0E0BC01CD010E94F503DC013A
:10242000CB018B879C87AD87BE876B857C858D852F
:102430009E8520E030E04AE755E40E941702DC0167
:10244000CB018F839887A987BA876F817885898523
:102450009A8520E030E040E85FE30E947103882322
:102460002CF481E090E09E838D833FC06F8178855E
:1024700089859A8520E03FEF4FE757E40E941103DA
:1024800018164CF56B857C858D859E8520E030E0A7
:1024900040E251E40E941702DC01CB01BC01CD01F6
:1024A0000E944100DC01CB019E838D830FC080E937
:1024B00091E09C838B838B819C810197F1F79C83B6
:1024C0008B838D819E8101979E838D838D819E81DB
:1024D000009769F714C06F81788589859A850E9475
:1024E0004100DC01CB019E838D838D819E819A8387
:1024F000898389819A810197F1F79A8389838989F0
:102500009A8901969A8B898B89899A898830910555
:102510000CF451CF65960FB6F894DEBF0FBECDBF59
:10252000CF91DF910895DF93CF93CDB7DEB7659755
:102530000FB6F894DEBF0FBECDBF9D8B8C8B83E0B2
:102540008B8B1A8A198AA9C00E942210188A1F86AA
:102550001EC029893A898C899D89FC01E20FF31FED
:102560008081882F90E00F8402C0959587950A940A
:10257000E2F7882F90E081709070882319F08F85A2
:102580000E94A5108F8598890196988B8F878F85DB
:10259000988988309105ECF289890E9431108B89E5
:1025A000882F90E0A0E0B0E0BC01CD010E94F503CF
:1025B000DC01CB018B879C87AD87BE876B857C85D3
:1025C0008D859E8520E030E04AE755E40E941702A1
:1025D000DC01CB018F839887A987BA876F817885C3
:1025E00089859A8520E030E040E85FE30E9471032E
:1025F00088232CF481E090E09E838D833FC06F811F
:10260000788589859A8520E03FEF4FE757E40E945F
:10261000110318164CF56B857C858D859E8520E011
:1026200030E040E251E40E941702DC01CB01BC0122
:10263000CD010E944100DC01CB019E838D830FC040
:1026400080E991E09C838B838B819C810197F1F7DA
:102650009C838B838D819E8101979E838D838D8149
:102660009E81009769F714C06F81788589859A8566
:102670000E944100DC01CB019E838D838D819E8170
:102680009A83898389819A810197F1F79A83898353
:1026900089899A8901969A8B898B89899A89883048
:1026A00091050CF451CF65960FB6F894DEBF0FBEBE
:1026B000CDBFCF91DF9108950F931F93DF93CF93F9
:1026C000CDB7DEB7C455D0400FB6F894DEBF0FBE0D
:1026D000CDBFFE01EF5AFF4F80E090E0ACE0B2E4E6
:1026E00080839183A283B3838E01035B1F4FFE011E
:1026F000EF5AFF4F608171818281938120E030E049
:102700004AE755E40E941702DC01CB01F8018083FF
:102710009183A283B383FE01E35BFF4F60817181EC
:102720008281938120E030E040E85FE30E94710302
:10273000882344F4FE01E55BFF4F81E090E0918344
:10274000808364C0FE01E35BFF4F60817181828101
:10275000938120E03FEF4FE757E40E9411031816E2
:102760000CF043C0FE01EF5AFF4F608171818281FE
:10277000938120E030E040E251E40E941702DC0146
:10278000CB018E01055B1F4FBC01CD010E944100B2
:10279000DC01CB01F801918380831FC0FE01E75B60
:1027A000FF4F80E991E091838083FE01E75BFF4F5B
:1027B000808191810197F1F7FE01E75BFF4F9183E3
:1027C0008083DE01A55BBF4FFE01E55BFF4F80818B
:1027D0009181019711969C938E93FE01E55BFF4FCB
:1027E000808191810097D1F627C08E01055B1F4F34
:1027F000FE01E35BFF4F60817181828193810E94C2
:102800004100DC01CB01F80191838083DE01A95BEB
:10281000BF4FFE01E55BFF4F808191818D939C93BB
:10282000FE01E95BFF4F808191810197F1F7FE0185
:10283000E95BFF4F9183808382E00E949916FE013D
:10284000ED5BFF4F80E090E0A0EAB0E480839183ED
:10285000A283B3838E01015C1F4FFE01ED5BFF4F2E
:10286000608171818281938120E030E04AE755E404
:102870000E941702DC01CB01F80180839183A283BF
:10288000B383FE01FF96608171818281938120E094
:1028900030E040E85FE30E94710388232CF481E07C
:1028A00090E09EAF8DAF46C0FE01FF9660817181C2
:1028B0008281938120E03FEF4FE757E40E941103AC
:1028C000181664F5FE01ED5BFF4F60817181828116
:1028D000938120E030E040E251E40E941702DC01E5
:1028E000CB01BC01CD010E944100DC01CB019EAFB8
:1028F0008DAF0FC080E991E09CAF8BAF8BAD9CADED
:102900000197F1F79CAF8BAF8DAD9EAD01979EAF58
:102910008DAF8DAD9EAD009769F716C0FE01FF9695
:1029200060817181828193810E944100DC01CB0131
:102930009EAF8DAF8DAD9EAD9AAF89AF89AD9AAD8B
:102940000197F1F79AAF89AF88E20E94991680E06B
:1029500090E0A0E8BFE38DAB9EABAFABB8AF6DA985
:102960007EA98FA998AD20E030E04AE755E40E94A7
:102970001702DC01CB0189AB9AABABABBCAB69A94D
:102980007AA98BA99CA920E030E040E85FE30E948F
:10299000710388232CF481E090E098AB8FA73FC0AF
:1029A00069A97AA98BA99CA920E03FEF4FE757E4DA
:1029B0000E94110318164CF56DA97EA98FA998AD38
:1029C00020E030E040E251E40E941702DC01CB013C
:1029D000BC01CD010E944100DC01CB0198AB8FA767
:1029E0000FC080E991E09EA78DA78DA59EA50197B8
:1029F000F1F79EA78DA78FA598A9019798AB8FA7F0
:102A00008FA598A9009769F714C069A97AA98BA91D
:102A10009CA90E944100DC01CB0198AB8FA78FA538
:102A200098A99CA78BA78BA59CA50197F1F79CA7BC
:102A30008BA782E00E94991680E090E0A0EAB0E4C3
:102A40008FA398A7A9A7BAA76FA178A589A59AA5CA
:102A500020E030E04AE755E40E941702DC01CB0198
:102A60008BA39CA3ADA3BEA36BA17CA18DA19EA1B2
:102A700020E030E040E85FE30E94710388232CF4FB
:102A800081E090E09AA389A33FC06BA17CA18DA1B6
:102A90009EA120E03FEF4FE757E40E941103181674
:102AA0004CF56FA178A589A59AA520E030E040E219
:102AB00051E40E941702DC01CB01BC01CD010E9450
:102AC0004100DC01CB019AA389A30FC080E991E00A
:102AD00098A38F8F8F8D98A10197F1F798A38F8F6F
:102AE00089A19AA101979AA389A389A19AA1009784
:102AF00069F714C06BA17CA18DA19EA10E94410029
:102B0000DC01CB019AA389A389A19AA19E8F8D8F05
:102B10008D8D9E8D0197F1F79E8F8D8F8CE00E9499
:102B2000991680E090E0A0E8BFE3898F9A8FAB8F81
:102B3000BC8F698D7A8D8B8D9C8D20E030E04AE7CB
:102B400055E40E941702DC01CB018D8B9E8BAF8B6D
:102B5000B88F6D897E898F89988D20E030E040E8BC
:102B60005FE30E94710388232CF481E090E09C8B4A
:102B70008B8B3FC06D897E898F89988D20E03FEFD8
:102B80004FE757E40E94110318164CF5698D7A8DB2
:102B90008B8D9C8D20E030E040E251E40E941702D2
:102BA000DC01CB01BC01CD010E944100DC01CB0165
:102BB0009C8B8B8B0FC080E991E09A8B898B8989E4
:102BC0009A890197F1F79A8B898B8B899C89019758
:102BD0009C8B8B8B8B899C89009769F714C06D89BE
:102BE0007E898F89988D0E944100DC01CB019C8BEE
:102BF0008B8B8B899C89988B8F878F859889019780
:102C0000F1F7988B8F8781E00E94991680E090E021
:102C1000A0E0B0E48B879C87AD87BE876B857C8501
:102C20008D859E8520E030E04AE755E40E9417023A
:102C3000DC01CB018F839887A987BA876F8178855C
:102C400089859A8520E030E040E85FE30E947103C7
:102C500088232CF481E090E09E838D833FC06F81B8
:102C6000788589859A8520E03FEF4FE757E40E94F9
:102C7000110318164CF56B857C858D859E8520E0AB
:102C800030E040E251E40E941702DC01CB01BC01BC
:102C9000CD010E944100DC01CB019E838D830FC0DA
:102CA00080E991E09C838B838B819C810197F1F774
:102CB0009C838B838D819E8101979E838D838D81E3
:102CC0009E81009769F714C06F81788589859A8500
:102CD0000E944100DC01CB019E838D838D819E810A
:102CE0009A83898389819A810197F1F79A838983ED
:102CF000CC5ADF4F0FB6F894DEBF0FBECDBFCF91D9
:102D0000DF911F910F910895DF93CF930F92CDB76D
:102D1000DEB7898381E061E00E944A1C8FE160E0B8
:102D20000E944A1C89810E948A190F90CF91DF91DD
:102D30000895DF93CF930F92CDB7DEB7898381E0FB
:102D400060E00E944A1C8FE160E00E944A1C898179
:102D50000E948A190F90CF91DF910895DF93CF934E
:102D600000D000D00F92CDB7DEB79D838C831B823D
:102D70008C819D819A8389830EC08B81282F30E0BE
:102D800089819A81FC01E20FF31F80810E948416E1
:102D90008B818F5F8B838B81282F30E089819A8193
:102DA000FC01E20FF31F8081882319F08B818E31A3
:102DB00020F30F900F900F900F900F90CF91DF9115
:102DC0000895DF93CF93CDB7DEB764970FB6F8942D
:102DD000DEBF0FBECDBF9C8B8B8B1B821EC08B8139
:102DE000E82FF0E08B899C892AE030E0B9010E944D
:102DF000F92F282F205DCE010496E80FF91F2083BC
:102E00008B899C892AE030E0B9010E94F92FCB011F
:102E10009C8B8B8B8B818F5F8B838B899C89181606
:102E20001906ECF28B81882F90E001979A838983B1
:102E30000FC029813A81CE010496FC01E20FF31FF5
:102E400080810E94841689819A8101979A8389835F
:102E500089819A8199236CF764960FB6F894DEBF46
:102E60000FBECDBFCF91DF910895DF93CF93CDB744
:102E7000DEB766970FB6F894DEBF0FBECDBF9C8B52
:102E80008B8B7E8B6D8B1B821EC08B81E82FF0E0BD
:102E90008B899C892AE030E0B9010E94F92F282F04
:102EA000205DCE010496E80FF91F20838B899C8951
:102EB0002AE030E0B9010E94F92FCB019C8B8B8B6B
:102EC0008B818F5F8B838B899C8918161906ECF296
:102ED0008B81882F90E001979A8389830FC0298185
:102EE0003A81CE010496FC01E20FF31F80810E941B
:102EF000841689819A8101979A8389838B81282FEF
:102F000030E08D899E89281B390B89819A8182172F
:102F100093072CF766960FB6F894DEBF0FBECDBFB1
:102F2000CF91DF910895DF93CF93CDB7DEB7679749
:102F30000FB6F894DEBF0FBECDBF9D8B8C8B1C826D
:102F400040C08C899D8920E130E0B9010E94F92FB1
:102F50008B838B818A3068F08C81282F30E08B81C5
:102F6000482F495CCE010596FC01E20FF31F408318
:102F70000CC08C81282F30E08B81482F405DCE0122
:102F80000596FC01E20FF31F40838C899D899F8B7E
:102F90008E8B8E899F8999232CF48E899F890F9619
:102FA0009F8B8E8B8E899F89959587959595879513
:102FB00095958795959587959D8B8C8B8C818F5F4B
:102FC0008C838C899D89181619060CF4BACF80E37E
:102FD0000E94841688E50E9484168C81882F90E0D8
:102FE00001979A8389830FC029813A81CE01059682
:102FF000FC01E20FF31F80810E94841689819A816F
:1030000001979A83898389819A8199236CF76796BE
:103010000FB6F894DEBF0FBECDBFCF91DF910895FC
:10302000DF93CF93CDB7DEB781E00E949916CF91A1
:10303000DF910895DF93CF930F92CDB7DEB719825A
:1030400006C080E20E94841689818F5F898389810E
:103050008330B8F30F90CF91DF910895DF93CF9332
:1030600000D00F92CDB7DEB78A836B838B81882F18
:1030700090E0817090700196002496958795079452
:10308000969587950794982F802D89838A81882F1C
:1030900090E0880F991F982F8981890F0E949916B7
:1030A0000F900F900F90CF91DF910895DF93CF9302
:1030B000CDB7DEB761970FB6F894DEBF0FBECDBFB8
:1030C0001F868E899F899E878D87CE0146960296A0
:1030D0009C878B870AC18F85282F30E08D859E8540
:1030E000FC01E20FF31F8081853209F0D3C08F8588
:1030F0008F5F8F878F85282F30E08D859E85FC011F
:10310000E20FF31F8081282F30E0398B288B8889CC
:10311000998983369105F1F028893989243631055A
:1031200044F488899989C2978830910508F0A3C032
:1031300061C0888999898337910509F449C0288934
:1031400039892837310591F1888999898436910523
:10315000D9F091C08B859C8501969C878B878B8548
:103160009C85FC01319780818A878A850E9484161C
:103170008B859C8501969C878B878B859C85FC0124
:10318000319780818A87AEC08B859C8502969C870B
:103190008B878B859C85FC013297808191819987F3
:1031A0008887888599850E94E1169CC08B859C85BF
:1031B00002969C878B878B859C85FC01329780814A
:1031C00091819F838E838E819F810E9493178AC0F5
:1031D0008B859C8502969C878B878B859C85FC01C3
:1031E0003297808191819D838C838C819D810E9407
:1031F000AE1678C08F85282F30E08D859E85FC0126
:10320000E20FF31F808180538B838F85882F90E09E
:103210009C012F5F3F4F8D859E85FC01E20FF31FC0
:1032200080818436C9F48F858F5F8F878B859C85DD
:1032300002969C878B878B859C85FC0132978081C9
:1032400091819A8389838B81282F30E089819A81AB
:10325000B9010E94351746C085E20E9484168F8509
:10326000282F30E08D859E85FC01E20FF31F8081C1
:103270000E94841637C085E20E9484168F85282F0D
:1032800030E08D859E85FC01E20FF31F80810E9456
:10329000841628C08F85282F30E08D859E85FC01FF
:1032A000E20FF31F80818A3021F480EC0E9499168E
:1032B00019C08F85282F30E08D859E85FC01E20F97
:1032C000F31F8081893019F40E941A180BC08F8572
:1032D000282F30E08D859E85FC01E20FF31F808151
:1032E0000E9484168F858F5F8F878F85282F30E00F
:1032F0008D859E85FC01E20FF31F8081882309F0F4
:10330000EACE61960FB6F894DEBF0FBECDBFCF9167
:10331000DF910895DF93CF93CDB7DEB76D970FB6EA
:10332000F894DEBF0FBECDBF8D8F8D8D881F88278F
:10333000881F813029F486E061E00E944A1C04C0A5
:1033400086E060E00E944A1C8D8D82958695869568
:103350008370882F90E081709070882329F085E039
:1033600061E00E944A1C04C085E060E00E944A1CA3
:103370008D8D829586958770882F90E081709070F2
:10338000882329F084E061E00E944A1C04C084E0A4
:1033900060E00E944A1C8D8D82958F70882F90E08E
:1033A00081709070882329F083E061E00E944A1CBC
:1033B00004C083E060E00E944A1C82E061E00E9459
:1033C0004A1C80E090E0A0EAB0E4898F9A8FAB8F2E
:1033D000BC8F698D7A8D8B8D9C8D20E030E04AE723
:1033E00055E40E941702DC01CB018D8B9E8BAF8BC5
:1033F000B88F6D897E898F89988D20E030E040E814
:103400005FE30E94710388232CF481E090E09C8BA1
:103410008B8B3FC06D897E898F89988D20E03FEF2F
:103420004FE757E40E94110318164CF5698D7A8D09
:103430008B8D9C8D20E030E040E251E40E94170229
:10344000DC01CB01BC01CD010E944100DC01CB01BC
:103450009C8B8B8B0FC080E991E09A8B898B89893B
:103460009A890197F1F79A8B898B8B899C890197AF
:103470009C8B8B8B8B899C89009769F714C06D8915
:103480007E898F89988D0E944100DC01CB019C8B45
:103490008B8B8B899C89988B8F878F8598890197D7
:1034A000F1F7988B8F8782E060E00E944A1C8D8D37
:1034B000869586958695882F90E0817090708823F8
:1034C00029F086E061E00E944A1C04C086E060E0CA
:1034D0000E944A1C8D8D86958695882F90E081707C
:1034E0009070882329F085E061E00E944A1C04C0A6
:1034F00085E060E00E944A1C8D8D8695882F90E0C3
:1035000081709070882329F084E061E00E944A1C59
:1035100004C084E060E00E944A1C8D8D882F90E0FA
:1035200081709070882329F083E061E00E944A1C3A
:1035300004C083E060E00E944A1C82E061E00E94D7
:103540004A1C80E090E0A0EAB0E48B879C87AD87BE
:10355000BE876B857C858D859E8520E030E04AE7BF
:1035600055E40E941702DC01CB018F839887A9875D
:10357000BA876F81788589859A8520E030E040E8B8
:103580005FE30E94710388232CF481E090E09E8326
:103590008D833FC06F81788589859A8520E03FEFD4
:1035A0004FE757E40E94110318164CF56B857C8594
:1035B0008D859E8520E030E040E251E40E941702B4
:1035C000DC01CB01BC01CD010E944100DC01CB013B
:1035D0009E838D830FC080E991E09C838B838B81D8
:1035E0009C810197F1F79C838B838D819E8101974C
:1035F0009E838D838D819E81009769F714C06F81B2
:10360000788589859A850E944100DC01CB019E83E3
:103610008D838D819E819A83898389819A81019787
:10362000F1F79A83898382E060E00E944A1C6D96DC
:103630000FB6F894DEBF0FBECDBFCF91DF910895D6
:10364000DF93CF93CDB7DEB78CE061E00E944A1CD8
:103650008DE061E00E944A1C8EE061E00E944A1CFD
:103660008FE061E00E944A1CCF91DF910895DF93C3
:10367000CF93CDB7DEB728970FB6F894DEBF0FBE55
:10368000CDBF8C830E94201B1B828C8186958695E2
:103690008F5F8A838C8183708F5F89838A81282FD3
:1036A00030E038872F838F81988582309105D9F05B
:1036B0002F8138852330310534F48F81988581300E
:1036C000910561F01EC02F8138852330310581F0CE
:1036D0008F8198858430910581F013C08CE060E083
:1036E0000E944A1C0EC08DE060E00E944A1C09C086
:1036F0008EE060E00E944A1C04C08FE060E00E94FF
:103700004A1C8981282F30E03E832D838D819E8144
:1037100082309105F1F02D813E812330310534F462
:103720008D819E818130910561F02AC02D813E817D
:1037300023303105B1F08D819E8184309105C9F02F
:103740001FC08AE10E948F1C8823D1F481E08B8303
:1037500017C08BE10E948F1C882391F481E08B833A
:103760000FC08CE10E948F1C882351F481E08B8371
:1037700007C08DE10E948F1C882311F481E08B83A8
:103780000E94201B8B8128960FB6F894DEBF0FBED7
:10379000CDBFCF91DF910895DF93CF9300D000D0BC
:1037A00000D0CDB7DEB78C838C81869586958695C3
:1037B0008B838B81282F30E03E832D838D819E81EA
:1037C0008230910579F02D813E812330310579F0E9
:1037D0008D819E818130910579F488E390E09A8310
:1037E00089830EC085E390E09A83898309C082E3D0
:1037F00090E09A83898304C08BE390E09A83898365
:1038000089819A8126960FB6F894DEBF0FBECDBF90
:10381000CF91DF910895DF93CF9300D000D000D0F7
:10382000CDB7DEB78C838C818695869586958B8304
:103830008B81282F30E03E832D838D819E818230C5
:10384000910579F02D813E812330310579F08D810C
:103850009E818130910579F486E390E09A83898393
:103860000EC083E390E09A83898309C080E390E0EF
:103870009A83898304C089E390E09A83898389814C
:103880009A8126960FB6F894DEBF0FBECDBFCF91BA
:10389000DF910895DF93CF9300D000D0CDB7DEB78E
:1038A0008B836C838B810E94CC1B9A8389838C8150
:1038B0008130B9F4E981FA818081482F8B81882F8A
:1038C00090E09C012770307081E090E0022E02C0F1
:1038D000880F991F0A94E2F7842BE981FA8180838B
:1038E00017C0E981FA818081482F8B81882F90E071
:1038F0009C012770307081E090E0022E02C0880F9A
:10390000991F0A94E2F780958423E981FA818083E4
:103910000F900F900F900F90CF91DF910895DF934C
:10392000CF9300D000D0CDB7DEB78B838B810E94C0
:103930000B1C9A838983E981FA818081282F30E0EA
:103940008B81882F90E087709070A90102C05595F7
:1039500047958A95E2F7CA01882F90E081709070B0
:10396000882319F051E05C8301C01C828C810F9088
:103970000F900F900F90CF91DF910895DF93CF9329
:1039800000D00F92CDB7DEB78B838B810E94CC1B0A
:103990009A838983E981FA818081482F8B81882FDE
:1039A00090E09C012770307081E090E0022E02C010
:1039B000880F991F0A94E2F78427E981FA818083AE
:1039C0000F900F900F90CF91DF910895DF93CF93D9
:1039D000CDB7DEB7EAE3F0E08EEF8083E7E3F0E017
:1039E0008FEF8083E4E3F0E08FE38083E1E3F0E0B6
:1039F0001082CF91DF910895DF93CF9300D000D054
:103A00000F92CDB7DEB79A8389836B838B81882F22
:103A100090E09C01277030703D832C838C819D81C8
:103A200083309105D9F12C813D81243031057CF41E
:103A30008C819D818130910529F12C813D8122303D
:103A4000310534F58C819D810097B1F044C02C8103
:103A50003D812530310571F18C819D818530910545
:103A60001CF12C813D812630310551F18C819D81E5
:103A70008730910559F12FC089819A816DE40E94A8
:103A8000731D29C089819A8161E40E94731D23C03E
:103A900089819A8162E50E94731D1DC089819A8186
:103AA0006CE40E94731D17C089819A8169E40E94A9
:103AB000731D11C089819A816EE40E94731D0BC031
:103AC00089819A8169E40E94731D05C089819A8168
:103AD0006AE20E94731D0F900F900F900F900F904D
:103AE000CF91DF910895DF93CF9300D000D00F9254
:103AF000CDB7DEB79A8389836B838B81282F30E023
:103B00003D832C838C819D818934910509F454C5B2
:103B10002C813D812A3431057CF58C819D81823454
:103B2000910509F492C12C813D8123343105B4F40F
:103B30008C819D818134910509F441C02C813D81A6
:103B40002115310511F40C947E2A8C819D818A32D5
:103B5000910511F40C9437290C94AE2B2C813D81E6
:103B60002334310509F4C4C28C819D8184349105CC
:103B700009F4F0C30C94AE2B2C813D812D3431051A
:103B800009F4A2C78C819D818E34910544F42C8167
:103B90003D812C34310509F45AC60C94AE2B8C812E
:103BA0009D818E34910511F40C94AB262C813D81BE
:103BB0002235310511F40C94F2270C94AE2BE981D7
:103BC000FA811082E981FA811182E981FA811282F7
:103BD000E981FA8181E08383E981FA811482E981B4
:103BE000FA811582E981FA811682E981FA811782C8
:103BF00089819A81FC013896108289819A81FC0121
:103C00003896118289819A81FC01389681E08283FD
:103C100089819A81FC013896138289819A81FC01FD
:103C2000389681E0848389819A81FC0138961582D7
:103C300089819A81FC013896168289819A81FC01DA
:103C40003896178289819A81FC0170961082898149
:103C50009A81FC01709681E0818389819A81FC01BF
:103C6000709681E0828389819A81FC01709613822B
:103C700089819A81FC01709681E0848389819A818F
:103C8000FC01709681E0858389819A81FC017096A0
:103C9000168289819A81FC017096178289819A81A6
:103CA000FC017896108289819A81FC01789681E0E6
:103CB000818389819A81FC017896128289819A8117
:103CC000FC017896138289819A81FC01789614828E
:103CD00089819A81FC01789681E0858389819A8126
:103CE000FC017896168289819A81FC017896178268
:103CF00089819A81FC01B096108289819A81FC01A8
:103D0000B09681E0818389819A81FC01B09612820C
:103D100089819A81FC01B096138289819A81FC0184
:103D2000B096148289819A81FC01B09681E08583E6
:103D300089819A81FC01B096168289819A81FC0161
:103D4000B096178289819A81FC01B8961082898188
:103D50009A81FC01B89681E0818389819A81FC0176
:103D6000B89681E0828389819A81FC01B89681E0CE
:103D7000838389819A81FC01B89681E0848389815B
:103D80009A81FC01B89681E0858389819A81FC0142
:103D9000B896168289819A81FC01B896178289812A
:103DA0009A81FC01F096108289819A81FC01F0963B
:103DB00081E0818389819A81FC01F0961282898158
:103DC0009A81FC01F096138289819A81FC01F09618
:103DD000148289819A81FC01F09681E08583898132
:103DE0009A81FC01F096168289819A81FC01F096F5
:103DF000178289819A81FC01F896108289819A81C3
:103E0000FC01F89681E0818389819A81FC01F89612
:103E1000128289819A81FC01F896138289819A81A4
:103E2000FC01F896148289819A81FC01F89681E060
:103E3000858389819A81FC01F896168289819A810D
:103E4000FC01F89617820C94AE2BE981FA8181E08F
:103E50008083E981FA8181E08183E981FA8181E0CF
:103E60008283E981FA8181E08383E981FA8181E0BB
:103E70008483E981FA8181E08583E981FA8181E0A7
:103E80008683E981FA8181E0878389819A81FC01B7
:103E9000389681E0808389819A81FC01389611826D
:103EA00089819A81FC013896128289819A81FC016C
:103EB0003896138289819A81FC013896148289810F
:103EC0009A81FC013896158289819A81FC01389685
:103ED000168289819A81FC01389681E087838981E5
:103EE0009A81FC01709681E0808389819A81FC012E
:103EF0007096118289819A81FC0170961282898163
:103F00009A81FC017096138289819A81FC017096D6
:103F1000148289819A81FC017096158289819A8127
:103F2000FC017096168289819A81FC01709681E06D
:103F3000878389819A81FC01789681E080838981D9
:103F40009A81FC017896118289819A81FC01789688
:103F5000128289819A81FC017896138289819A81E3
:103F6000FC017896148289819A81FC0178961582E9
:103F700089819A81FC01789681E0868389819A8182
:103F8000FC017896178289819A81FC01B09681E0C4
:103F9000808389819A81FC01B09681E08183898147
:103FA0009A81FC01B09681E0828389819A81FC012B
:103FB000B09681E0838389819A81FC01B09681E08B
:103FC000848389819A81FC01B09681E0858389810F
:103FD0009A81FC01B09681E0868389819A81FC01F7
:103FE000B096178289819A81FC01B89681E080831E
:103FF00089819A81FC01B896118289819A81FC019C
:10400000B896128289819A81FC01B89613828981BF
:104010009A81FC01B896148289819A81FC01B89634
:10402000158289819A81FC01B896168289819A81CC
:10403000FC01B89681E0878389819A81FC01F09622
:1040400081E0808389819A81FC01F09611828981C7
:104050009A81FC01F096128289819A81FC01F09686
:10406000138289819A81FC01F096148289819A8158
:10407000FC01F096158289819A81FC01F0961682E6
:1040800089819A81FC01F09681E0878389819A81F8
:10409000FC01F89681E0808389819A81FC01F89681
:1040A00081E0818389819A81FC01F89681E0828395
:1040B00089819A81FC01F89681E0838389819A81C4
:1040C000FC01F89681E0848389819A81FC01F8964D
:1040D00081E0858389819A81FC01F89681E086835D
:1040E00089819A81FC01F89681E087830C94AE2B3C
:1040F000E981FA811082E981FA811182E981FA81EC
:104100001282E981FA811382E981FA811482E981BC
:10411000FA811582E981FA811682E981FA81178292
:1041200089819A81FC013896108289819A81FC01EB
:104130003896118289819A81FC0138961282898190
:104140009A81FC013896138289819A81FC01389604
:10415000148289819A81FC013896158289819A811D
:10416000FC013896168289819A81FC013896178263
:1041700089819A81FC017096108289819A81FC0163
:104180007096118289819A81FC01709612828981D0
:104190009A81FC017096138289819A81FC01709644
:1041A000148289819A81FC017096158289819A8195
:1041B000FC017096168289819A81FC0170961782A3
:1041C00089819A81FC017896108289819A81FC010B
:1041D0007896118289819A81FC0178961282898170
:1041E0009A81FC017896138289819A81FC017896E4
:1041F000148289819A81FC017896158289819A813D
:10420000FC017896168289819A81FC017896178242
:1042100089819A81FC01B096108289819A81FC0182
:10422000B096118289819A81FC01B09612828981AF
:104230009A81FC01B096138289819A81FC01B09623
:10424000148289819A81FC01B096158289819A81B4
:10425000FC01B096168289819A81FC01B096178282
:1042600089819A81FC01B896108289819A81FC012A
:10427000B896118289819A81FC01B896128289814F
:104280009A81FC01B896138289819A81FC01B896C3
:10429000148289819A81FC01B896158289819A815C
:1042A000FC01B896168289819A81FC01B896178222
:1042B00089819A81FC01F096108289819A81FC01A2
:1042C000F096118289819A81FC01F096128289818F
:1042D0009A81FC01F096138289819A81FC01F09603
:1042E000148289819A81FC01F096158289819A81D4
:1042F000FC01F096168289819A81FC01F096178262
:1043000089819A81FC01F896108289819A81FC0149
:10431000F896118289819A81FC01F896128289812E
:104320009A81FC01F896138289819A81FC01F896A2
:10433000148289819A81FC01F896158289819A817B
:10434000FC01F896168289819A81FC01F896178201
:104350000C94AE2BE981FA811082E981FA811182F5
:10436000E981FA811282E981FA811382E981FA8175
:104370001482E981FA811582E981FA811682E98144
:10438000FA81178289819A81FC013896108289818D
:104390009A81FC013896118289819A81FC013896B4
:1043A000128289819A81FC013896138289819A81CF
:1043B000FC013896148289819A81FC013896158215
:1043C00089819A81FC013896168289819A81FC0143
:1043D0003896178289819A81FC01709610828981B2
:1043E0009A81FC017096118289819A81FC017096F4
:1043F000128289819A81FC017096138289819A8147
:10440000FC017096148289819A81FC017096158254
:1044100089819A81FC017096168289819A81FC01BA
:104420007096178289819A81FC0178961082898121
:104430009A81FC017896118289819A81FC01789693
:10444000128289819A81FC017896138289819A81EE
:10445000FC017896148289819A81FC0178961582F4
:1044600089819A81FC017896168289819A81FC0162
:104470007896178289819A81FC01B0961082898191
:104480009A81FC01B096118289819A81FC01B096D3
:10449000128289819A81FC01B096138289819A8166
:1044A000FC01B096148289819A81FC01B096158234
:1044B00089819A81FC01B096168289819A81FC01DA
:1044C000B096178289819A81FC01B8961082898101
:1044D0009A81FC01B896118289819A81FC01B89673
:1044E000128289819A81FC01B896138289819A810E
:1044F000FC01B896148289819A81FC01B8961582D4
:1045000089819A81FC01B896168289819A81FC0181
:10451000B896178289819A81FC01F0961082898170
:104520009A81FC01F096118289819A81FC01F096B2
:10453000128289819A81FC01F096138289819A8185
:10454000FC01F096148289819A81FC01F096158213
:1045500089819A81FC01F096168289819A81FC01F9
:10456000F096178289819A81FC01F89610828981E0
:104570009A81FC01F896118289819A81FC01F89652
:10458000128289819A81FC01F896138289819A812D
:10459000FC01F896148289819A81FC01F8961582B3
:1045A00089819A81FC01F896168289819A81FC01A1
:1045B000F89617820C94AE2BE981FA8181E0808312
:1045C000E981FA8181E08183E981FA8181E0828356
:1045D000E981FA8181E08383E981FA8181E0848342
:1045E000E981FA8181E08583E981FA8181E086832E
:1045F000E981FA8181E0878389819A81FC0138967B
:10460000108289819A81FC013896118289819A8170
:10461000FC013896128289819A81FC01389681E0EA
:10462000838389819A81FC01389681E08483898122
:104630009A81FC013896158289819A81FC0138960D
:10464000168289819A81FC013896178289819A8124
:10465000FC017096108289819A81FC01709611820A
:1046600089819A81FC017096128289819A81FC016C
:10467000709681E0838389819A81FC01709681E044
:10468000848389819A81FC017096158289819A813F
:10469000FC017096168289819A81FC0170961782BE
:1046A00089819A81FC017896108289819A81FC0126
:1046B0007896118289819A81FC017896128289818B
:1046C0009A81FC01789681E0838389819A81FC013B
:1046D000789681E0848389819A81FC01789615829D
:1046E00089819A81FC017896168289819A81FC01E0
:1046F0007896178289819A81FC01B096108289810F
:104700009A81FC01B096118289819A81FC01B09650
:10471000128289819A81FC01B09681E0838389812C
:104720009A81FC01B09681E0848389819A81FC01A1
:10473000B096158289819A81FC01B0961682898192
:104740009A81FC01B096178289819A81FC01B89602
:10475000108289819A81FC01B896118289819A819F
:10476000FC01B896128289819A81FC01B89681E099
:10477000838389819A81FC01B89681E08483898151
:104780009A81FC01B896158289819A81FC01B896BC
:10479000168289819A81FC01B896178289819A8153
:1047A000FC01F096108289819A81FC01F0961182B9
:1047B00089819A81FC01F096128289819A81FC019B
:1047C000F09681E0838389819A81FC01F09681E0F3
:1047D000848389819A81FC01F096158289819A816E
:1047E000FC01F096168289819A81FC01F09617826D
:1047F00089819A81FC01F896108289819A81FC0155
:10480000F89681E0818389819A81FC01F89681E0A4
:10481000828389819A81FC01F89681E08383898172
:104820009A81FC01F89681E0848389819A81FC0158
:10483000F89681E0858389819A81FC01F89681E070
:10484000868389819A81FC01F896178287C7E9815E
:10485000FA811082E981FA811182E981FA8181E08D
:104860008283E981FA811382E981FA811482E981E4
:10487000FA811582E981FA811682E981FA8117822B
:1048800089819A81FC013896108289819A81FC0184
:104890003896118289819A81FC01389681E0828361
:1048A00089819A81FC013896138289819A81FC0161
:1048B0003896148289819A81FC0138961582898103
:1048C0009A81FC013896168289819A81FC0138967A
:1048D000178289819A81FC017096108289819A8160
:1048E000FC017096118289819A81FC01709681E0A9
:1048F000828389819A81FC017096138289819A81D1
:10490000FC017096148289819A81FC01709615824F
:1049100089819A81FC017096168289819A81FC01B5
:104920007096178289819A81FC017896108289811C
:104930009A81FC017896118289819A81FC0178968E
:1049400081E0828389819A81FC0178961382898132
:104950009A81FC017896148289819A81FC0178966B
:10496000158289819A81FC017896168289819A81C3
:10497000FC017896178289819A81FC01B096108299
:1049800089819A81FC01B096118289819A81FC010A
:10499000B09681E0828389819A81FC01B09613826E
:1049A00089819A81FC01B096148289819A81FC01E7
:1049B000B096158289819A81FC01B0961682898110
:1049C0009A81FC01B096178289819A81FC01B89680
:1049D000108289819A81FC01B896118289819A811D
:1049E000FC01B89681E0828389819A81FC01B896A6
:1049F000138289819A81FC01B896148289819A81F7
:104A0000FC01B896158289819A81FC01B8961682BC
:104A100089819A81FC01B896178289819A81FC016B
:104A2000F096108289819A81FC01F0961182898129
:104A30009A81FC01F09681E0828389819A81FC0150
:104A4000F096138289819A81FC01F0961482898103
:104A50009A81FC01F09681E0858389819A81FC012D
:104A6000F096168289819A81FC01F09617828981DD
:104A70009A81FC01F896108289819A81FC01F8964E
:104A8000118289819A81FC01F89681E08283898173
:104A90009A81FC01F89681E0838389819A81FC01E7
:104AA000F89681E0848389819A81FC01F89681E0FF
:104AB000858389819A81FC01F896168289819A8181
:104AC000FC01F89617824AC6E981FA8181E0808369
:104AD000E981FA811182E981FA811282E981FA8100
:104AE0001382E981FA811482E981FA811582E981D0
:104AF000FA811682E981FA8181E0878389819A812E
:104B0000FC01389681E0808389819A81FC01389686
:104B100081E0818389819A81FC01389612828981A2
:104B20009A81FC013896138289819A81FC0138961A
:104B3000148289819A81FC013896158289819A8133
:104B4000FC01389681E0868389819A81FC01389640
:104B500081E0878389819A81FC01709681E080835E
:104B600089819A81FC017096118289819A81FC0168
:104B7000709681E0828389819A81FC01709613820C
:104B800089819A81FC017096148289819A81FC0145
:104B9000709681E0858389819A81FC0170961682E6
:104BA00089819A81FC01709681E0878389819A814D
:104BB000FC01789681E0808389819A81FC01789656
:104BC000118289819A81FC017896128289819A8169
:104BD000FC01789681E0838389819A81FC01789633
:104BE00081E0848389819A81FC017896158289818C
:104BF0009A81FC017896168289819A81FC017896C7
:104C000081E0878389819A81FC01B09681E080836D
:104C100089819A81FC01B096118289819A81FC0177
:104C2000B096128289819A81FC01B09613828981A3
:104C30009A81FC01B096148289819A81FC01B09618
:104C4000158289819A81FC01B096168289819A81A8
:104C5000FC01B09681E0878389819A81FC01B89636
:104C600081E0808389819A81FC01B89611828981D3
:104C70009A81FC01B896128289819A81FC01B896CA
:104C8000138289819A81FC01B896148289819A8164
:104C9000FC01B896158289819A81FC01B89616822A
:104CA00089819A81FC01B89681E0878389819A8104
:104CB000FC01F09681E0808389819A81FC01F09665
:104CC000118289819A81FC01F096128289819A81F0
:104CD000FC01F096138289819A81FC01F09614827E
:104CE00089819A81FC01F096158289819A81FC0163
:104CF000F096168289819A81FC01F09681E0878383
:104D000089819A81FC01F89681E0808389819A816A
:104D1000FC01F896118289819A81FC01F896128231
:104D200089819A81FC01F896138289819A81FC011C
:104D3000F896148289819A81FC01F89615828981FE
:104D40009A81FC01F896168289819A81FC01F89675
:104D500081E0878303C5E981FA8181E08083E9816D
:104D6000FA811182E981FA811282E981FA81138242
:104D7000E981FA811482E981FA811582E981FA8157
:104D80001682E981FA8181E0878389819A81FC0119
:104D9000389681E0808389819A81FC01389681E090
:104DA000818389819A81FC013896128289819A8156
:104DB000FC013896138289819A81FC01389614820D
:104DC00089819A81FC013896158289819A81FC013A
:104DD0003896168289819A81FC01389681E0878312
:104DE00089819A81FC01709681E0808389819A8112
:104DF000FC017096118289819A81FC01709681E094
:104E0000828389819A81FC017096138289819A81BB
:104E1000FC017096148289819A81FC01709615823A
:104E200089819A81FC017096168289819A81FC01A0
:104E3000709681E0878389819A81FC01789681E070
:104E4000808389819A81FC017896118289819A8177
:104E5000FC017896128289819A81FC01789681E022
:104E6000838389819A81FC017896148289819A8151
:104E7000FC017896158289819A81FC0178961682C8
:104E800089819A81FC01789681E0878389819A8162
:104E9000FC01B09681E0808389819A81FC01B09603
:104EA000118289819A81FC01B096128289819A814E
:104EB000FC01B096138289819A81FC01B09681E051
:104EC000848389819A81FC01B096158289819A81B7
:104ED000FC01B096168289819A81FC01B09681E02E
:104EE000878389819A81FC01B89681E080838981DA
:104EF0009A81FC01B896118289819A81FC01B89649
:104F0000128289819A81FC01B896138289819A81E3
:104F1000FC01B896148289819A81FC01B89681E0DF
:104F2000858389819A81FC01B896168289819A814C
:104F3000FC01B89681E0878389819A81FC01F09613
:104F400081E0808389819A81FC01F09611828981B8
:104F50009A81FC01F096128289819A81FC01F09677
:104F6000138289819A81FC01F096148289819A8149
:104F7000FC01F096158289819A81FC01F09681E00E
:104F8000868389819A81FC01F09681E087838981FB
:104F90009A81FC01F89681E0808389819A81FC01E5
:104FA000F896118289819A81FC01F8961282898192
:104FB0009A81FC01F896138289819A81FC01F89606
:104FC000148289819A81FC01F896158289819A81DF
:104FD000FC01F896168289819A81FC01F89681E09D
:104FE0008783BCC3E981FA811082E981FA8181E07B
:104FF0008183E981FA8181E08283E981FA8181E01C
:105000008383E981FA8181E08483E981FA811582D1
:10501000E981FA811682E981FA81178289819A8170
:10502000FC013896108289819A81FC01389681E0D2
:10503000818389819A81FC013896128289819A81C3
:10504000FC013896138289819A81FC01389681E0AF
:10505000848389819A81FC013896158289819A819D
:10506000FC013896168289819A81FC013896178254
:1050700089819A81FC017096108289819A81FC0154
:10508000709681E0818389819A81FC0170961282F9
:1050900089819A81FC017096138289819A81FC0131
:1050A000709681E0848389819A81FC0170961582D3
:1050B00089819A81FC017096168289819A81FC010E
:1050C0007096178289819A81FC0178961082898175
:1050D0009A81FC01789681E0818389819A81FC0123
:1050E000789681E0828389819A81FC01789681E0BB
:1050F000838389819A81FC01789681E08483898108
:105100009A81FC017896158289819A81FC017896B2
:10511000168289819A81FC017896178289819A8109
:10512000FC01B096108289819A81FC01B09681E0E1
:10513000818389819A81FC01B096128289819A814A
:10514000FC01B09681E0838389819A81FC01B0964D
:10515000148289819A81FC01B096158289819A8195
:10516000FC01B096168289819A81FC01B096178263
:1051700089819A81FC01B896108289819A81FC010B
:10518000B89681E0818389819A81FC01B896128268
:1051900089819A81FC01B896138289819A81FC01E8
:1051A000B89681E0848389819A81FC01B896158242
:1051B00089819A81FC01B896168289819A81FC01C5
:1051C000B896178289819A81FC01F09610828981B4
:1051D0009A81FC01F09681E0818389819A81FC01AA
:1051E000F096128289819A81FC01F096138289815E
:1051F0009A81FC01F09681E0848389819A81FC0187
:10520000F096158289819A81FC01F0961682898137
:105210009A81FC01F096178289819A81FC01F896A7
:10522000108289819A81FC01F89681E081838981CD
:105230009A81FC01F896128289819A81FC01F89684
:10524000138289819A81FC01F89681E084838981A7
:105250009A81FC01F896158289819A81FC01F89661
:10526000168289819A81FC01F896178277C2E981BA
:10527000FA811082E981FA8181E08183E981FA81F2
:1052800081E08283E981FA811382E981FA811482C3
:10529000E981FA8181E08583E981FA8181E0868371
:1052A000E981FA81178289819A81FC01389681E02F
:1052B000808389819A81FC013896118289819A8143
:1052C000FC013896128289819A81FC01389681E02E
:1052D000838389819A81FC01389681E08483898166
:1052E0009A81FC013896158289819A81FC01389651
:1052F000168289819A81FC01389681E087838981B1
:105300009A81FC01709681E0808389819A81FC01F9
:105310007096118289819A81FC017096128289812E
:105320009A81FC01709681E0838389819A81FC01D6
:10533000709681E0848389819A81FC017096158240
:1053400089819A81FC017096168289819A81FC017B
:10535000709681E0878389819A81FC01789610821A
:1053600089819A81FC01789681E0818389819A8183
:10537000FC017896128289819A81FC0178961382C9
:1053800089819A81FC017896148289819A81FC0135
:105390007896158289819A81FC01789681E08683CE
:1053A00089819A81FC017896178289819A81FC0112
:1053B000B096108289819A81FC01B09681E0818348
:1053C00089819A81FC01B09681E0828389819A81EA
:1053D000FC01B096138289819A81FC01B0961482F7
:1053E00089819A81FC01B09681E0858389819A81C7
:1053F000FC01B09681E0868389819A81FC01B09698
:10540000178289819A81FC01B896108289819A81DC
:10541000FC01B896118289819A81FC01B89681E0DD
:10542000828389819A81FC01B896138289819A814D
:10543000FC01B896148289819A81FC01B89681E0BA
:10544000858389819A81FC01B896168289819A8127
:10545000FC01B896178289819A81FC01F09610822E
:1054600089819A81FC01F096118289819A81FC01DF
:10547000F096128289819A81FC01F09681E0838303
:1054800089819A81FC01F09681E0848389819A81E7
:10549000FC01F096158289819A81FC01F0961682B2
:1054A00089819A81FC01F096178289819A81FC0199
:1054B000F896108289819A81FC01F896118289817F
:1054C0009A81FC01F896128289819A81FC01F896F2
:1054D000138289819A81FC01F896148289819A81CC
:1054E000FC01F896158289819A81FC01F896168252
:1054F00089819A81FC01F896178230C1E981FA818D
:105500001082E981FA811182E981FA811282E981AE
:10551000FA811382E981FA811482E981FA81158284
:10552000E981FA811682E981FA81178289819A815B
:10553000FC013896108289819A81FC01389611828B
:1055400089819A81FC013896128289819A81FC01B5
:105550003896138289819A81FC0138961482898158
:105560009A81FC013896158289819A81FC013896CE
:10557000168289819A81FC013896178289819A81E5
:10558000FC017096108289819A81FC0170961182CB
:1055900089819A81FC017096128289819A81FC012D
:1055A0007096138289819A81FC0170961482898198
:1055B0009A81FC017096158289819A81FC0170960E
:1055C000168289819A81FC017096178289819A815D
:1055D000FC017896108289819A81FC01789611826B
:1055E00089819A81FC017896128289819A81FC01D5
:1055F0007896138289819A81FC0178961482898138
:105600009A81FC017896158289819A81FC017896AD
:10561000168289819A81FC017896178289819A8104
:10562000FC01B096108289819A81FC01B0961182AA
:1056300089819A81FC01B096128289819A81FC014C
:10564000B096138289819A81FC01B0961482898177
:105650009A81FC01B096158289819A81FC01B096ED
:10566000168289819A81FC01B096178289819A817C
:10567000FC01B896108289819A81FC01B89611824A
:1056800089819A81FC01B896128289819A81FC01F4
:10569000B896138289819A81FC01B8961482898117
:1056A0009A81FC01B896158289819A81FC01B8968D
:1056B000168289819A81FC01B896178289819A8124
:1056C000FC01F096108289819A81FC01F09611828A
:1056D00089819A81FC01F096128289819A81FC016C
:1056E000F096138289819A81FC01F0961482898157
:1056F0009A81FC01F096158289819A81FC01F096CD
:10570000168289819A81FC01F096178289819A819B
:10571000FC01F896108289819A81FC01F896118229
:1057200089819A81FC01F896128289819A81FC0113
:10573000F896138289819A81FC01F89614828981F6
:105740009A81FC01F896158289819A81FC01F8966C
:10575000168289819A81FC01F89617820F900F902A
:105760000F900F900F90CF91DF9108950F931F939B
:10577000DF93CF93CDB7DEB7C256D0400FB6F894C3
:10578000DEBF0FBECDBF0E94E61C0E94201B0E9400
:105790005C1300D000D0EDB7FEB7319680E690E004
:1057A000918380838DE399E0938382830E945618CE
:1057B0000F900F900F900F9088EB91E163E070E0F5
:1057C0000E94351780E00E94371B882309F4C6C069
:1057D00000D000D0EDB7FEB7319680E790E091831E
:1057E000808381E391E0938382830E9456180F9017
:1057F0000F900F900F90FE01E15AFF4F80E090E074
:10580000AAEFB3E480839183A283B3838E01055A08
:105810001F4FFE01E15AFF4F6081718182819381A8
:1058200020E030E04AE755E40E941702DC01CB019A
:10583000F80180839183A283B383FE01E55AFF4F71
:10584000608171818281938120E030E040E85FE3F4
:105850000E947103882344F4FE01E75AFF4F81E060
:1058600090E09183808364C0FE01E55AFF4F608120
:1058700071818281938120E03FEF4FE757E40E94DE
:10588000110318160CF043C0FE01E15AFF4F60816E
:1058900071818281938120E030E040E251E40E94F6
:1058A0001702DC01CB018E01075A1F4FBC01CD014D
:1058B0000E944100DC01CB01F801918380831FC06D
:1058C000FE01E95AFF4F80E991E091838083FE0158
:1058D000E95AFF4F808191810197F1F7FE01E95A62
:1058E000FF4F91838083DE01A75ABF4FFE01E75A25
:1058F000FF4F80819181019711969C938E93FE01B9
:10590000E75AFF4F808191810097D1F627C08E0121
:10591000075A1F4FFE01E55AFF4F60817181828156
:1059200093810E944100DC01CB01F80191838083C7
:10593000DE01AB5ABF4FFE01E75AFF4F80819181D4
:105940008D939C93FE01EB5AFF4F808191810197CB
:10595000F1F7FE01EB5AFF4F9183808381E00E94B3
:10596000371B882309F4C8C00E94101800D000D04B
:10597000EDB7FEB7319689E790E09183808382E0AE
:1059800090E0938382830E9456180F900F900F909F
:105990000F90FE01EF5AFF4F80E090E0AAEFB3E4D2
:1059A00080839183A283B3838E01035B1F4FFE012B
:1059B000EF5AFF4F608171818281938120E030E056
:1059C0004AE755E40E941702DC01CB01F80180830D
:1059D0009183A283B383FE01E35BFF4F60817181FA
:1059E0008281938120E030E040E85FE30E94710310
:1059F000882344F4FE01E55BFF4F81E090E0918352
:105A0000808364C0FE01E35BFF4F6081718182810E
:105A1000938120E03FEF4FE757E40E9411031816EF
:105A20000CF043C0FE01EF5AFF4F6081718182810B
:105A3000938120E030E040E251E40E941702DC0153
:105A4000CB018E01055B1F4FBC01CD010E944100BF
:105A5000DC01CB01F801918380831FC0FE01E75B6D
:105A6000FF4F80E991E091838083FE01E75BFF4F68
:105A7000808191810197F1F7FE01E75BFF4F9183F0
:105A80008083DE01A55BBF4FFE01E55BFF4F808198
:105A90009181019711969C938E93FE01E55BFF4FD8
:105AA000808191810097D1F627C08E01055B1F4F41
:105AB000FE01E35BFF4F60817181828193810E94CF
:105AC0004100DC01CB01F80191838083DE01A95BF9
:105AD000BF4FFE01E55BFF4F808191818D939C93C9
